:020000040800F2
:1000000038050020852B0008612B0008632B0008B1
:10001000652B0008672B0008692B00080000000012
:100020000000000000000000000000006B2B000832
:100030006D2B0008000000006F2B0008712B0008DA
:10004000A12B0008A52B0008A92B0008AD2B000848
:10005000B12B0008B52B0008B92B0008BD2B0008F8
:10006000C12B0008C52B0008C92B0008CD2B0008A8
:10007000D12B0008D52B0008D92B0008DD2B000858
:10008000E12B0008E52B0008470C0008E92B0008CD
:10009000ED2B0008F12B0008F52B0008F92B0008C8
:1000A000FD2B0008012C0008052C0008092C000875
:1000B0000D2C0008C5230008112C0008152C000881
:1000C000192C00081D2C0008212C0008252C0008E4
:1000D000292C00082D2C0008312C0008352C000894
:1000E000392C00083D2C0008412C0008452C000844
:1000F000492C00084D2C0008512C0008552C0008F4
:10010000592C00085D2C0008612C0008652C0008A3
:10011000692C00086D2C0008712C0008752C000853
:10012000792C00087D2C0008812C0008852C000803
:10013000892C00088D2C0008912C0008952C0008B3
:10014000992C00089D2C0008A12C0008A52C000863
:10015000A92C0008AD2C0008B12C0008B52C000813
:10016000B92C0008BD2C0008C12C0008C52C0008C3
:10017000C92C0008CD2C0008D12C0008D52C000873
:10018000D92C0008DD2C0008603000EB81000068ED
:1001900000F0F8407047603000EB8100016821F00A
:1001A00000410A4302607047C06800F44060401E8E
:1001B0008041C00F7047CB0D10B5143003F004031D
:1001C0001818090D01F01F01036807248C40A34390
:1001D00002FA01F11943016010BDF8B5002504468B
:1001E00000950CB90120F2BD04F15006706820B9E9
:1001F000204600F0A1FCB560357021688868800059
:1002000004D58A68DFF8D80402408A6021688868CB
:10021000C00017D48A68DFF8CC04024042F0805254
:100220008A60DFF8C414DFF8C4240868B0FBF2F277
:10023000521C5200009202E00098401E009000986C
:100240000028F9D120688168C90008D4726842F09A
:10025000100272600125B16841F00101B16081684E
:100260007268D30600D4490700F17F80726822F4D7
:10027000807242F0020272608068C00714D4DFF816
:100280007014DFF8702408681168DFF86C341A689D
:1002900008431043C00707D4DFF860140A68606899
:1002A00022F47C1202430A6004F13002607E53683B
:1002B000E16894F8207043EA4033A0680B4303439D
:1002C000012F43EA074303D1606A401E43EA4043DB
:1002D000A06A20B1E16A00F470700843034321680A
:1002E000DFF81C04CF6807403B43CB6021688B6874
:1002F00088685B0724D4000722D4CB68DFF80404A5
:10030000277E0340107843EA873343EA4003CB60FB
:10031000107A01280FD123681F69D16810696FF323
:100320008A070F435169074390690F43074347F01A
:1003300001071F6104E02068016949084900016163
:10034000206901282068016B05D1E2690909521E64
:1003500042EA011101E0090909010163706820F016
:10036000020040F00100706004E0706840F010008E
:10037000706001252846F2BDF8B500F08CF804F055
:100380001F0460D405F15006317801295BD00120AB
:100390003070284600F07CFB010051D1726800F0FB
:1003A00054F872602968DFF87C26914200D11CB9AC
:1003B000736823F4801373607368DF0446BFB36807
:1003C00023F006030023B3601C270F600021317067
:1003D00029684B6823F01C034B6069690829296868
:1003E0004B680CBF43F0080343F004034B60696B98
:1003F00021B929684B6843F010034B60296891428A
:1004000004D1002C1CBF052C092C09D1CA6893010A
:1004100001D500F020F82A68DFF8C812936835E0AB
:100420007368914243F480130CBFDFF8D42601F1C6
:100430000C0273601268930106D500F00CF8F2BD4F
:1004400000213170F2BD0220F2BDDFF8B8160A407B
:1004500042F480727047726822F4005242F4805273
:1004600072606A69082A4A6807D122F020024A604D
:1004700029684A6842F0400206E022F040024A60E1
:1004800029684A6842F020024A6070470B4043F0F6
:1004900004039360F2BD0546DFF86C060468296822
:1004A0008868400770470068006C70472DE9F84F76
:1004B0000646DFF84892306807684568D9F800407A
:1004C000B80704F01F040ED5A9070CD5706DC1063E
:1004D00003D4706D40F400607065304600F02DFB71
:1004E0003168022008607807DFF83CA5DFF834B5F2
:1004F00001D5690703D438073CD529073AD5706D73
:10050000C10603D4706D40F4007070653068FFF769
:100510004BFE48B33068584504D1002C1CBF052C55
:10052000092C01D1C16805E058450CBF514600F1C6
:100530000C010968890417D40268110714D5816871
:1005400049070FD4426822F00C024260706D20F41B
:1005500080707065706DC10406D4706D40F001004C
:10056000706501E000F0D0F8304600F066FB3168BD
:100570000C200860B80601D5A90603D478064CD52E
:1005800069064AD5706DC10603D4706D40F4005001
:1005900070653068C16C01F0C001B1F1010868EB11
:1005A0000808FFF701FE316859454FEAD87804D1B1
:1005B000002C1CBF062C072C01D1CA6805E0594548
:1005C00018BF01F10C0ADAF80020B8F1000F1ED0B4
:1005D000930102D5D8B1900419D40868400616D505
:1005E000920214D4886800070FD44A6822F060028F
:1005F0004A60706D20F480507065706DC10506D43E
:10060000706D40F00100706501E000F07DF830464B
:1006100000F02AFB31686020086038060BD52906F7
:1006200009D5706D40F480307065304600F01DFBD8
:10063000316880200860F8050CD5E9050AD5706D91
:1006400040F400307065304600F010FB31684FF424
:1006500080700860B8050CD5A9050AD5706D40F406
:1006600080207065304600F002FB31684FF4007066
:100670000860F8061CD5E9061AD5706B50B12CB18C
:10068000D9F8000010F4604F04D10EE03068C16862
:10069000C8070AD5716D41F480617165B06D40F095
:1006A0000200B065304600F0E3FA316810200860BF
:1006B000780512D5690510D5706D40F480407065DD
:1006C0004FF48061B06D40F00800B06530680160A3
:1006D0003046BDE8F24F00F0CCBABDE8F18F000023
:1006E000C0FFFF5FC0FFFF7F9C000020400D0300A4
:1006F0000800045008010450080204500803045084
:1007000007C0F0FFFDBFFFFF706D40F01000706587
:10071000B06D40F00100B06570470000F8B50646C6
:10072000002406F150050F4600942978012901D1D3
:100730000220F2BD0120287031688868400700F16E
:1007400066817868062812D2801E03280DD8DFE85B
:1007500000F0020406080C2008E0122103E0182033
:1007600004E04FF48071796001E0062078607968D8
:10077000326838688B09303203F00C039A1801F0A4
:100780001F01D2F800C01F238B40C0F384602CEA05
:10079000030300FA01F1194311603068826881682F
:1007A000520720D409071ED4BA683968FFF703FD41
:1007B0003068C1683A69042A16D060303B6800EBA3
:1007C000820C9748DCF80020024003F0F843134302
:1007D000C9087A69480000F006008240134343F0DC
:1007E0000043CCF8003076E00021FFF7CDFC400359
:1007F0003068214604D1FFF7C7FCC0F3846003E0F2
:10080000FFF7C2FC00F012F939684A030EBFC1F3CA
:10081000846191FAA1F1B1FA81F1884204D1306882
:1008200000220021FFF7B7FC00F012F9400304D1C9
:1008300000F00EF9C0F3846003E000F009F900F065
:10084000F5F839684A030EBFC1F3846191FAA1F14A
:10085000B1FA81F1884204D1306800220121FFF70A
:100860009AFC00F0F1F8400304D100F0EDF8C0F379
:10087000846003E000F0E8F800F0D8F839684A0333
:100880000EBFC1F3846191FAA1F1B1FA81F18842FE
:1008900004D1306800220221FFF77DFC00F0D0F87F
:1008A000400304D100F0CCF8C0F3846003E000F012
:1008B000C7F800F0BBF839684A030EBFC1F3846182
:1008C00091FAA1F1B1FA81F1884204D13068002295
:1008D0000321FFF760FC31688868C00747D4FA68D5
:1008E0003B68D1F8B0C0DFF824E202F01802C3F38D
:1008F00012002EFA02F22CEA000013400343C1F862
:10090000B030F868DFF80812884230D13868410307
:100910000EBFC0F3846290FAA0F1B1FA81F2521CCA
:10092000012102F01F020A2A0DD200F095F89B0661
:1009300002F01F02401C03F0F843914000F01F003A
:1009400000F0A0F80FE000F087F8401C9B0602F0D2
:100950001F0200F01F0003F0F84391400A3800F036
:1009600091F841F00071BA683068FFF724FC3B68E9
:10097000DFF8A00103424FD0DFF88C01DFF898C107
:100980000168DFF89871DFF89821634501F0E071A4
:100990001ED10B0240D43368934218BFBB423BD1F7
:1009A00000F049F841F400010160DFF87801DFF858
:1009B00078210168B1FBF2F2521C0C2042430092F4
:1009C000009800281EBF0098401E0090F8D123E038
:1009D000DFF858E173450BD1CB011DD43368934246
:1009E00018BFBB4218D100F026F841F080710CE02E
:1009F000DFF83C71BB420FD14B020DD436689642F2
:100A00000AD100F018F841F48001016004E0686840
:100A100040F0200068600124002028702046F2BDCC
:100A200000F0FF03000104500C00045090FAA0F005
:100A3000B0FA80F07047026822F0E072114370470C
:100A400030680321FFF7A0BB30680221FFF79CBB91
:100A500030680121FFF798BB420304D1C0F38462E0
:100A6000134610460BE090FAA0F2B2FA82F390FA25
:100A7000A0F290FAA0F0B2FA82F2B0FA80F05B1C19
:100A8000521C7047194300EB400041EA0051704787
:100A900070B5044621688868C20722D488686FF35D
:100AA0009E10E8B98868234D284040F00100886016
:100AB00000F0E0F8064620680168CA0711D4816892
:100AC000C90704D482682A4042F00102826000F023
:100AD000D1F8801B0328EED320680168CA07EAD446
:100AE00001E0002070BD606D40F01000606500F016
:100AF00001F870BDA06D40F00100A06501207047B5
:100B00000C000450FEF1FFFF08030450FFFF070034
:100B100000007F4000000880000052C7000204501F
:100B2000000004509C000020400D0300000084CB16
:100B300001000080C0FFFF7F7047704700B585B09F
:100B400000228DF800008DF8011001208DF80300BF
:100B50008DF802200392049269463C4800F0DCF8CC
:100B600005B000BD70B586B004460D46374E002274
:100B700001A9304600F030F900226946304600F005
:100B800049F99DF8040020709DF80510297006B001
:100B900070BD2E482E49016000227F23FF21426054
:100BA0008360C16002618261C26100F069B818B5FA
:100BB00087B01822002101A800F0D7F92548264C5B
:100BC000016841F4005101604FF48032006823490C
:100BD00000F400500090009821600020A0600021E7
:100BE000216184F82010A162012060760121E16179
:100BF0000020E062E06084F83000042162606161FE
:100C00002046FFF7EAFA16480190012102910722D7
:100C1000039201A92046FFF781FD01220021122045
:100C200000F0E4F9122000F0FFF92046FFF7A4FBE2
:100C300008B010BD0B480068704780B5FFF733FC63
:100C40000849086001BD0448FFF730BC04010020DA
:100C5000002800404C100240A0000020000004507A
:100C6000000084CB34010020704770477047704704
:100C70007047704701484068704700BF8C000020F3
:100C800038B504460120002C45D094F8210028B93D
:100C9000002184F82010204600F008FA022184F890
:100CA0002110CA20226850625321206841622046E8
:100CB00000F002F901002ED12168DFF888028A686D
:100CC00002408A602268936865682169A0690D43C3
:100CD00005432B4393602068E16801612068016946
:100CE000A26841EA02410161204600F005F90100D5
:100CF00011D12168CA6C92089200CA642268D36C30
:100D0000E56961690D432B43D364FF2223685A626E
:100D1000012184F8211032BDF8B500F0AEF8144678
:100D200001D10220F2BD012085F82000022185F8C2
:100D30002110CA202A68506253212868416228463F
:100D400000F0BAF8010038D128688068002C12D170
:100D500041065CBF0020F070307800F0FBF800F036
:100D600038F8040200F087F844EA07440443F078B6
:100D700044EA80540DE041065CBF0020F0707478B6
:100D80003178B078240244EA0144F178044344EA1B
:100D900081542968DFF8B00104400C60286882683B
:100DA00022F48022826029688A68F36830690343EC
:100DB0001A438A60284600F09FF82A68FF21516292
:100DC000030004BF012185F82110002285F82020AE
:100DD000F2BD07467078BDE030B50068836A4B60AD
:100DE0000469C4F30E048C600368DFF85C010340FF
:100DF0001C0C04F03F040C708B701D0A9B0D4D7091
:100E0000CB702AB9087800F01FF8087000F023F8BA
:100E1000002030BD30B50368DFF830015B68034067
:100E20008B701D0A1C0C05F01F055B0BCC704D7000
:100E300003F007030B702AB9C87800F005F8C870F2
:100E400000F009F8002030BD03090A2200F00F006D
:100E500012FB030070474878030900F00F0012FBF3
:100E6000030048708878030900F00F0012FB0302AA
:100E70008A7070470702B0786CE005460E4695F818
:100E800020000128704738B504462068C16821F069
:100E9000A001C160FFF7EEFE05462068C168880624
:100EA00008D4FFF7E7FE401B40F2E9318842F4D353
:100EB000032032BD002032BD70B5044600252068F5
:100EC000C1684A0616D44FF0FF31C160FFF7D2FE69
:100ED000064609E0FFF7CEFE801B40F2E93188426A
:100EE00024BF032584F821502168C868410601D435
:100EF000032DEFD1284670BD70B5154D04466868C6
:100F000020F08000686000262968880608D4204602
:100F1000FFF7B9FFA0B1032084F8210003260FE0FA
:100F2000286820F0200028602046FFF7ACFF18B1A9
:100F3000032084F821000326286840F02000286060
:100F4000304670BDBFFF8FFF7F7F7F003FFFFF00F8
:100F500008280040002101E0491C0A38C2B20A2AD0
:100F6000FAD240EA0110C0B2704710B504461046EC
:100F70000A460146204600F0BBF8204610BD30B4BA
:100F8000002513E050F8042BD30744BFA9F1010357
:100F90009A18091F042942F8045BFAD213468C07F9
:100FA00044BF15809B1CC90748BF1D7050F8041B27
:100FB0000029E7D130BC70470901020002D42A4859
:100FC00081547047294B02F00F021A4402F8041CA6
:100FD0007047274B19684FF6FF020002114000F4DA
:100FE000E0600843234908431860704770B5204B00
:100FF0001C68C4F302230124C3F10705052D2EBF8D
:101000000F2504FA05F56D1E1E1D072E34BF0023A3
:10101000DB1E2940994004FA03F3BDE870405B1ED3
:101020001A401143C8E70000010007D4012200F074
:101030001F01114B8A40400943F82020704710B52A
:10104000401EB0F1807F01D3012010BD0B4C6060C9
:101050000F214FF0FF30FFF7AFFF0021A160072005
:101060002060002010BD000000E400E018ED00E06A
:101070000CED00E00000FA0500E100E010E000E007
:10108000184881B0816841F001018160816801F0F8
:10109000010100910099026842F0805202600068EC
:1010A00000F080500090009801B0704710B5A2B0D9
:1010B0000446882200216846FFF757FF21680A4A44
:1010C00091420DD14FF400334FF480710093219180
:1010D000684600F041F80548016841F400410160AC
:1010E00022B010BD5810024000280040901002406D
:1010F00062F30F2262F31F42401810F0030308D07E
:10110000C91A1FD3DB0748BF00F8012D28BF20F8FC
:10111000022D130030B414461546103928BF20E9BB
:101120003C00FAD8490728BF20E90C0048BF40F826
:10113000042D890028BF20F8022D48BF00F8012D9A
:1011400030BC7047C91818BF00F8012DCB0728BF65
:1011500000F8012D704700002DE9FC4706460024E9
:101160003068DFF820740105A04621D5706E70B19B
:10117000B0F5800F17D0B0F5000F03D0B0F5400FD9
:1011800009D013E03A6842F480323A6004E000216A
:1011900000F07CF9044654B9F96F706E21F44001F7
:1011A0000143F96704E000F06BF9F3E70124A0467E
:1011B0003068C10421D5B06EA8B1B0F1807F17D0DE
:1011C000B0F1007F03D0B0F1407F04D013E0396864
:1011D00041F4803139607CB9F96FB06E21F0407113
:1011E0000143F96709E0002100F050F90446F2E7F5
:1011F00000F046F9FAE70124A046306881032BD5B8
:10120000F86CC1004FF000090AD4F86C40F080502F
:10121000F8644FF00109F86C00F0805000900098DD
:10122000DFF83454286840F480702860FFF722FD0E
:1012300082462868C10500F18280FFF71BFDA0EB04
:101240000A000328F5D30324A046B9F1000F03D008
:10125000F86C20F08050F8643078C10705D5FA6F3B
:10126000B06B920840EA8202FA673178880705D5A8
:10127000F96FF06B21F00C010143F96731784807F1
:1012800005D5F96F306C21F030010143F9673178F1
:10129000080705D5F96F706C21F0C0010143F967AB
:1012A0003178C80605D5F96FB06C21F4407101435F
:1012B000F9673178880605D5F96FF06C21F4406143
:1012C0000143F9673168880505D5F96FF06D21F4A0
:1012D00040210143F9673168480505D5F96F306E43
:1012E00021F440110143F9673178480605D5F96FBB
:1012F000306D21F440510143F9673178080605D576
:10130000F96F706D21F440410143F9673168C805F8
:1013100005D5F96FB06D21F440310143F9673168AB
:10132000880446D5F96FF06E21F040610143F967FA
:10133000F06EB0F1006F34D100F09DF839E0002C70
:1013400082D1DFF85043206810F440701CBFD6F8FB
:10135000841088420BD02068216841F480312160DC
:1013600020F44070226822F4803222602060C0079E
:101370000FD5FFF77FFC05462068810709D4FFF7EA
:1013800079FC401B41F289318842F5D34FF00308C4
:101390005BE72168D6F8840021F4407101432160A5
:1013A00053E7B0F1806F04D100F06FF8010018BF6F
:1013B00080463068010314D5FA6F306F22F0406226
:1013C0000243FA67306FB0F1006F02D100F053F8BA
:1013D00007E0B0F1806F04D100F057F8010018BFAA
:1013E00080463068410314D5FA6F706F22F0406276
:1013F0000243FA67706FB0F1006F02D100F03BF862
:1014000007E0B0F1806F04D100F03FF8010018BF91
:1014100080463068410418D5FA6FB06F22F0405210
:101420000243FA67B06FB0F1805F03D1022100F090
:101430002DF807E0B0F1005F07D1022106F120008E
:1014400000F0A2F8010018BF80463068010405D5FD
:10145000FA6FF06F22F080420243FA673168C803E6
:1014600006D5F96FD6F8800021F000410143F967F5
:101470004046BDE8F687386840F480103860704711
:10148000002106F1200000F07FB80121301D05E0A9
:101490008148016841F00401016070472DE9F04185
:1014A00005467D4F28680C46F968002611F0030FA9
:1014B0000DD0F96801F00301814231D180B3F868A1
:1014C0006968C0F30210401C88420ED028E0012851
:1014D00004D025D303281DD018D321E03A68910702
:1014E0001ED5FA68696800F0C9F8386820F0806095
:1014F00000F0CCF880463868010113D5FFF7BAFB3D
:10150000A0EB08000328F6D3032637E039684A0524
:10151000E7D405E039688A03E3D439684A03E0D4A4
:1015200001262BE0A9682CB93A695C48EB6800F009
:1015300095F80FE0012C3A6909D12B69584802400F
:101540005B0842EA01215B1E41EA435102E06B69FC
:1015500000F08BF83961386840F0806000F096F850
:1015600004463868010105D4FFF784FB001B0328FB
:10157000F7D3C9E73869A969084338613046BDE83F
:10158000F08100000C1002402DE9F0410646424F68
:1015900030680C46F968002511F0030F0DD0F9688A
:1015A00001F00301814231D180B3F8687168C0F362
:1015B0000210401C88420ED028E0012804D025D318
:1015C00003281DD018D321E03A6891071ED5FA6888
:1015D000716800F053F8386820F0805000F056F839
:1015E00080463868810013D5FFF744FBA0EB080064
:1015F0000328F6D303252BE039684A05E7D405E034
:1016000039688A03E3D439684A03E0D401251FE02E
:10161000B1687A69002C04D12048F36800F01EF804
:1016200002E0336900F021F87961386840F08050B9
:1016300000F02CF804463868810005D4FFF71AFB47
:10164000001B0328F7D3D5E77869716908437861EF
:101650002846BDE8F081000000700040024042EAE8
:1016600001211B0941EA434170470E4802405B08D3
:1016700042EA01215B1E41EA4361704722F0730296
:101680001043491E40EA0110F86070473860FFF7C8
:10169000F1BA00009010024000100240FF80FDFFF0
:1016A000FF809FFFFF80FFF92DE9FC47050065D013
:1016B000DFF87876DFF88466BC68F86800F0030825
:1016C0002878C10604F00C0448D524B10C2C08BFBE
:1016D000B8F1010F2CD13868810702D5A86900281C
:1016E0004CD0396808074EBF396871680909286A03
:1016F00001F0F001814206D200F0DEFA00283DD16F
:1017000000F0F5F907E000F0F2F924B9286A00F0DA
:10171000D3FA002832D100F086FABA6800F079FADC
:10172000DFF81006006800F01DFB010016D0D8E1BC
:10173000A86928B3396841F001013960FFF79AFAC6
:1017400081463868810707D4FFF794FAA0EB0900B7
:101750000328F6D30320C4E100F0C9F92878C107B3
:1017600056D5082C04D00C2C08BFB8F1030F18D1A3
:10177000386881034CD56868002849D10120B0E160
:101780003868400840003860FFF774FA81463868CE
:101790008107E3D5FFF76EFAA0EB09000328F6D323
:1017A000D8E76868B0F5803F04D1386840F48030ED
:1017B000386011E0B0F5A02F386806D140F48020E1
:1017C0003860396841F4803105E020F480303860B9
:1017D000396821F480213960686860B1FFF74AFAFE
:1017E00081463868810313D4FFF744FAA0EB09005F
:1017F0006528F6D3AEE7FFF73DFA814638688103E6
:1018000006D5FFF737FAA0EB09006528F6D3A1E764
:101810002878810713D5042C04D00C2C08BFB8F10C
:10182000020F22D13868410502D5E8680028A5D00A
:101830007868296920F0F85040EA016078602878DB
:10184000010743D568690028706830D040F0010076
:101850007060FFF70FFA80467068810736D4FFF793
:1018600009FA00F040F9F7D374E7E86878B139680D
:1018700041F480713960FFF7FDF980463868410511
:10188000D6D4FFF7F7F900F02EF9F7D362E73868FE
:1018900020F480703860FFF7EDF980463868410524
:1018A000CDD5FFF7E7F900F01EF9F7D352E740086E
:1018B00040007060FFF7DEF980467068810705D54B
:1018C000FFF7D8F900F00FF9F7D343E7287841077D
:1018D00067D5B86DC1004FF000080AD4B86D40F06C
:1018E0008050B8654FF00108B86D00F0805000904E
:1018F0000098DFF84C94D9F80000C10513D4D9F84A
:10190000000040F48070C9F80000FFF7B3F9824688
:10191000D9F80000C10506D4FFF7ACF9A0EB0A0026
:101920000328F5D316E7A868012804D1306840F0F1
:101930000100306010E00528306806D140F0040056
:101940003060316841F0010105E04008400030603E
:10195000316821F004013160A86841F2893960B131
:10196000FFF788F982463068810713D4FFF782F9C0
:10197000A0EB0A004845F6D3ECE6FFF77BF9824678
:101980003068810706D5FFF775F9A0EB0A004845D6
:10199000F6D3DFE6B8F1000F03D0B86D20F0805029
:1019A000B865A86A002800F09B80022878D1F86802
:1019B000EA6A00F00301914201BF00F070012A6B56
:1019C000521EB1EB021F1ED16A6B00F4FE41B1EB57
:1019D000022F18D1A96B07290CBF0021012100F4A7
:1019E00000328A420FD1EA6B520800F4C001521E45
:1019F000B1EB425F07D1296C490800F0C060491E75
:101A0000B0EB416F48D00C2C4BD03868410101D469
:101A10003868C1003FF5B2AE386820F08070386099
:101A2000FFF728F904463868810105D5FFF722F948
:101A3000001B0328F7D38DE6F868DFF80813EA6A7D
:101A40000840296B1043491E40EA0110EA6B696B9C
:101A5000520840EA0120296C521E490840EA4250CF
:101A6000491E40EA4160A96B090940EA4140F8601B
:101A7000386840F080703860F96841F08071F96032
:101A8000FFF7F8F804463868810129D4FFF7F2F827
:101A9000001B0328F7D35DE63868810120D4E7E70F
:101AA0000C2C3FF46BAE386820F0807038603968D9
:101AB00011F0205F03D1F86880088000F860F968B1
:101AC000DFF884020140F960FFF7D4F80446386873
:101AD000810105D5FFF7CEF8001B0328F7D339E6BF
:101AE0000020BDE8F687A0EB08000328704738689F
:101AF00040F0080038603968286A21F0F00101439D
:101B000039607968E86921F47F4141EA0021796010
:101B100070472DE9F0410400884658D0DFF82C6268
:101B2000306800F00700404509D23168C90848EA2A
:101B3000C1013160306800F00700404547D120788E
:101B4000DFF8E851C1072AD56068032802D1296867
:101B50008A0108E0022802D129688A0303E00028EC
:101B6000296802D18A0702D431E04A052FD5A96835
:101B7000890840EA8100A860FFF77CF80746A8685A
:101B8000616800F00C00B0EB810F08D0FFF772F82D
:101B9000C01B41F289318842F1D3032037E020781D
:101BA000810705D5AA68A06822F0F0020243AA6066
:101BB000316801F0070188450BD23068C00848EA57
:101BC000C0003060316801F00701414501D00120BB
:101BD0001DE02078410705D5AA68E06822F4E0629C
:101BE0000243AA602178080706D5A968206921F474
:101BF000605141EAC001A96000F015F8AA6800F040
:101C000008F8BDE8F0414B48006800F0ABB8BDE80B
:101C1000F0814F49C2F30312895C454A01F01F016C
:101C2000C8401060704770B5404A4A4B9068D6680B
:101C30000025002110F00C0006F00306464C03D0EE
:101C40000C2812D1012E1AD115682E0704D43A4D52
:101C50002E68C6F3032502E01568C5F303153F4E51
:101C600056F8255048B9294624E0042808BF2146E3
:101C700020D008281ED119461CE00C281AD1D068A3
:101C800000F00300022803D0032808BF1D4600E02F
:101C90002546D168D068D268C0F306204543C1F319
:101CA0000210C2F34161401C491CB5FBF0F0490031
:101CB000B0FBF1F1084670BD7CB5294E0546306891
:101CC0000024C10002D500F06FF80EE0306840F04B
:101CD00080503060316801F080510091009800F030
:101CE00063F8316821F080513160B0F5007F04D194
:101CF000802D0CD9A12D09D304E0802D88BF0324A9
:101D000005D801D1022402E0702D00D101240F4832
:101D10000168C90844EAC1010160006800F00700D9
:101D2000A04201D0012076BD002076BD0010024007
:101D30009C0000209400002094100240901002406B
:101D4000007000408C809DF9FFFFEEFE00200240F5
:101D5000B429000800127A000024F4007C2A00084C
:101D60005810024070B50E4E044630780025A0B1E0
:101D70004FF47A710B4AB1FBF0F11068B0FBF1F04F
:101D8000FFF75DF948B9102C07D2002221464FF029
:101D9000FF30FFF72BF9B46000E00125284670BD45
:101DA0008C0000209C000020DFF87400006800F424
:101DB000C060704710B5DFF86810B0F5007F0868A4
:101DC00000F4C06019D1B0F5007F1FD00868DFF8BB
:101DD0005420DFF8544020F4C06040F4007000F05C
:101DE00017F800E0401E4A69530501D50028F9D1D3
:101DF000486941050AD5032010BDB0F5806F05D0B4
:101E0000086820F4C06040F480600860002010BDC5
:101E10000860322013684343B3FBF4F0401C704762
:101E2000007000409C00002040420F0038B50400C4
:101E300001D1012032BD00F06BF818B900F064F850
:101E400000F082F93CE090F83D10012901D001201A
:101E50007047022180F83D100168CA6842F0010213
:101E6000CA600168DFF88400814218BFB1F1804F79
:101E700012D0DFF87C0081421CBFDFF8782091424D
:101E80000AD0DFF8740081421FBFDFF87020914252
:101E9000DFF86C0081420DD18A68DFF868000240EB
:101EA000062A18BFB2F5803F08D0086840F001004C
:101EB000086003E00A6842F001020A6000207047EF
:101EC00002206870211D206800F0D7F801202873D7
:101ED000A870E87028716871A871E871287268723A
:101EE000A872E8726870002032BD0000002C01402A
:101EF0000004004000080040000C00400034014095
:101F00000040014007000100002129702046704771
:101F100004F13C056878704710B5044620680169F3
:101F20008A0715D5C1688A0712D56FF002010161D1
:101F300001222277806910F0030F204602D000F0C2
:101F400004F903E000F002F900F094F80020207793
:101F5000206801694A0715D5C1684A0712D56FF094
:101F60000401016102222277806910F4407F20463B
:101F700002D000F0EAF803E000F0E8F800F07AF8A8
:101F800000202077206801690A0715D5C1680A0773
:101F900012D56FF00801016104222277C06910F0A8
:101FA000030F204602D000F0D0F803E000F0CEF896
:101FB00000F060F80020207720680169CA0615D576
:101FC000C168CA0612D56FF010010161082222779C
:101FD000C06910F4407F204602D000F0B6F803E05C
:101FE00000F0B4F800F046F800202077206801697E
:101FF000CA0708D5C168CA0705D56FF0010101619C
:10200000204600F0DEF9206801690A0608D5C1689B
:102010000A0605D56FF080010161204600F0FAF94B
:1020200020680169CA0508D5C1680A0605D56FF49C
:1020300080710161204600F0EEF9206801694A06CE
:1020400008D5C1684A0605D56FF0400101612046F8
:1020500000F0E2F9206801698A060AD5C1688A069B
:1020600007D56FF0200101612046BDE8104000F067
:10207000D4B910BD204600F0D1B92DE9F043DFF806
:10208000A870D0F800C0DFF8A430DFF8A440DFF873
:10209000A450DFF8A460DFF8A4E0DFF8A480DFF844
:1020A000A490B84218BFB0F1804F07D0484518BF80
:1020B000404503D0704518BFB0420ED14A68B842BF
:1020C0002CF0700C18BFB0F1804F42EA0C0C0CD011
:1020D00048451CBF4045704507D0B04218BFA842D4
:1020E00003D0A04218BF984204D1CA682CF4407CA7
:1020F00042EA0C0C4A692CF0800C42EA0C020260A5
:10210000B8428A68C26218BFB0420A68826204D0CC
:10211000A8421CBFA042984201D109690163012273
:102120004261BDE8F0830000002C014000480140FE
:10213000004401400040014000340140000C0040D8
:1021400000080040000400407047704770470000DE
:102150009E4B5854022908BF1A7270479B4A10447C
:10216000017170472DE9F843984C217B480801EB39
:1021700090729208A1EB8205EDB200BFA2A0625D51
:10218000825C012D02D1207A00B1921C206F401C8C
:10219000D2B2824202D2491C002021732067607BA8
:1021A000A84235D090A6DFF82892DFF82882331DA8
:1021B000002253F8301056F8300089B200F014FABB
:1021C0000027605DC0EBC00008EB000109F10403CB
:1021D000CA5D53F8371059F8370089B200F004FA95
:1021E0007F1C072FEDDB227AC2F10102D2B24FF43D
:1021F00080614FF0904000F0F7F9201D311D425DE5
:1022000051F8351056F8350089B200F0EDF96573D4
:10221000BDE8F18370B504464FF47A70B4FBF0F07A
:102220000A230A2500F01FF80021C0B2FFF790FF33
:102230000A236421B4FBF1F000F015F80121C0B2CB
:10224000B4FBF5F605FB1644FFF782FFB6FBF5F08D
:1022500005FB106000220221C0B2FFF779FFE0B257
:10226000BDE8704026E0B0FBF3F305FB130000224D
:1022700070472DE9F04106460A230D46904696FB2D
:10228000F3F700220021F8B2FFF762FF0A2404FBF3
:10229000176600220121F0B2FFF75AFF95FBF4F612
:1022A00004FB165542460221F0B2FFF751FFE8B297
:1022B000BDE8F041002203214AE70000F8B5464C92
:1022C000424D2068424F40F0010020600026216806
:1022D00001F0010100910098216841F002012160A4
:1022E000226802F0020200920098216841F0040185
:1022F00021601121226802F00402009200982966F0
:10230000002002216866A96607EBC60005F15C01A2
:102310004268EA6557F8360000F082F8761C072E0E
:10232000F2DB4FF48060E86505F15C014FF090400E
:1023300000F076F801202866686600260220A8666C
:1023400029A707EBC6004168E96505F15C0157F86C
:10235000360000F065F8761C042EF2DBE06840F0F1
:102360000200E0600122E06800F00200009000211D
:1023700000981D20FEF73AFE1D20FEF755FE174877
:10238000174928614FF4FA500A68B2FBF0F0401E7A
:10239000E861032100202862A861A862696105F153
:1023A0001000FFF743FD05F11000FFF74CFD002082
:1023B0000121C2B2401C2A44C3B2042B1171F8DBC4
:1023C000F1BDCFE60748FFF7A7BD000018000020C9
:1023D0000C2A0008C42900084C10024000040040E8
:1023E0009C000020280000200000004801000000A0
:1023F000000000480200000000000048100000003B
:102400000008004801000000060205050405060258
:10241000070600007047704770477047704700001C
:102420002DE9F84F4FF00009724A734B4FF00F0837
:1024300005460E4634E0714CA54214BF072406241D
:102440008C406F493C4341F82C40C143146801EA79
:10245000040C7468E40348BF40EA0C0CC2F800C0E6
:10246000546801EA040C7468A40348BF40EA0C0CE9
:10247000C2F804C0946801EA040C7468E40248BF1E
:1024800040EA0C0CC2F808C0D46801EA040C716878
:10249000890248BF40EA0C0CC2F80CC009F10109DE
:1024A000316831FA09F000F09780012404FA09F448
:1024B00014EA0100F2D04FEA490C032101FA0CF1B1
:1024C0006FEA010E7168E443012918BF022903D0A5
:1024D000112918BF122910D1A968F7680EEA010165
:1024E00007FA0CF73943A96069687768C7F30017E2
:1024F000214007FA09F739436960716801F0030761
:10250000032F07D1EF6AC1F3C0013C4001FA09F182
:102510000C43EC62E968B4680EEA010104FA0CF4B9
:102520002143E9604FEA89017468022C18BF122C1C
:1025300012D14FEAD90405EB840401F01C07D4F84A
:1025400020A008FA07FB2AEA0B0AD6F810B00BFA0B
:1025500007F747EA0A0727622C680EEA040734796E
:1025600004F0030404FA0CF43C432C607468E400A7
:1025700094D51C6844F001041C604FEA990C1C6857
:1025800004F00104009401F00C01009C1C4C54F870
:102590002C4008FA01F724EA0707B5F1904F08BF6D
:1025A000002418D0174CA54208BF012413D0164CA4
:1025B000A54208BF02240ED0144CA54208BF032434
:1025C00009D0134CA54208BF042404D0114CA542E5
:1025D0007FF431AF052433E7BDE8F18F006908408F
:1025E00018BF0120C0B270470AB181617047816293
:1025F00070470000000401406010024000180048CD
:10260000080001400004004800080048000C004891
:10261000001000480014004810B596B000F0F2F821
:102620004422002105A8FEF7A0FC142200216846E0
:10263000FEF79BFC4FF40070FFF7BCFB08B100F005
:10264000DEF800F0EFF86948016841F01801016018
:1026500014220121059207910B91B02200210C91C7
:102660000D920F9105A8FFF71FF808B172B6FEE7AB
:102670000F2000210090019102910391049168467E
:102680000421FFF746FA08B172B6FEE7FEF700FF35
:10269000FEF77FFAFEF78BFAFFF710FE0FF2F50157
:1026A0000FF2DD00524C00F0C5F813E080B90A4685
:1026B00008E00228FAD1FFF751FD61780320FFF707
:1026C0004DFD00229DF801109DF80000FFF7D1FD9F
:1026D00000F0B7F8FEF7CEFA01466068091A40F23A
:1026E000E932914200D2D8B9FEF7C4FA606020788E
:1026F000032815D100F03FF801210120FFF72EFD3E
:1027000001210220FFF72AFD01210320FFF726FD0A
:10271000FEF790FA42F2AC614843000BFFF77AFDF6
:10272000FEF7A8FA0146A068091A40F2F512914294
:1027300001D20028CCD1FEF79DFAA06000F05AF833
:102740006078C0F10100607000F015F801210120EF
:10275000FFF704FD01210220FFF700FD0121032006
:10276000FFF7FCFC207861780128A2D100F004F882
:1027700061780120A3E701210020FFF7EFBC0000F2
:102780001B480178491CCAB2042AA8BF0021017065
:10279000704700001CB5164C207828B3032823DAB4
:1027A00000F028F8207801280BD19DF80010491C72
:1027B000182291FBF2F2182000FB12118DF8001084
:1027C0000CE002280AD19DF80110491C3C2291FB23
:1027D000F2F23C2000FB12118DF801109DF801105F
:1027E0009DF80000FEF7AAF913BD0000901002400A
:1027F000280100200DF101016846FEF7B3B972B659
:10280000FEE70000032010B5FEF7E3FB0F20FFF703
:10281000A9FA0024002814BF0124FEF731FC204649
:1028200010BD00000248016841F4807101607047EA
:1028300000700040224A9060D1600020002100F02A
:1028400041B838B5002000F083F81D4C0546E0780B
:10285000E9B2814203D0FEF70DFA2071E570FEF770
:1028600009FA2179401A652828BFA570A078A8B96F
:10287000FEF700FA6061207808BBFEF7FBF92169DA
:10288000401A40F2BD22904205D3A0688047002143
:102890006170012012E00121617031BDFEF7EAF99B
:1028A0002061FEF7E7F96169401A652805D3607871
:1028B00018B1E0688047002161700020207031BDB0
:1028C0000000002038B586B004460D4600F035F80B
:1028D000200009D12248016841F00401016000682C
:1028E00000F0040000900098DFF878201FA0290075
:1028F00009D1002330F814100293039301910223AD
:1029000000F020F817E0012D15D130F81410164B07
:102910000191029300210223039100F013F800BFFC
:1029200013A030F8144000220F2160B2FEF75EFBC6
:1029300060B2FEF779FB07B030BD1422002101A878
:10294000FEF713BB049301A952F82400FFF768BDFA
:1029500006A2044B32F8101053F82000FFF73EBED9
:102960004C100240980000200000211000200000C0
:10297000280000000C48016841F470010160002249
:102980000A49086840F0010008608A604FF48052EC
:102990000B68074803400B60CA6000200B6823F4F3
:1029A00080230B608861704788ED00E000100240D2
:1029B000FFFFF6EA0000000000000000010203042F
:1029C00006070809000000000000010100000101E5
:1029D00001010000010000010000000000010100F1
:1029E00001000001010000000100000100000001E1
:1029F00000000000000000000101010100000000D3
:102A00000000000000000001000000000008004875
:102A100080000000000000480002000000000048A4
:102A20000001000000040048000400000004004809
:102A300010000000000400482000000000040048CE
:102A40000800000030B5016884684218416802EB54
:102A50005103C90703D54C4401E0491C05D19A42F2
:102A60000AD012F9011B12F8015B002904F8015B7E
:102A7000F3D4491EF7D5F2E70C3030BDA086010033
:102A8000400D0300801A060000350C0040420F0084
:102A900080841E0000093D0000127A000024F4002A
:102AA00000366E010048E801006CDC0210B50749F1
:102AB00079441831064C7C44163404E00A68081D39
:102AC000114488470146A142F8D110BD2C000000F6
:102AD000480000004EF68851CEF20001086840F42C
:102AE00070000860BFF34F8FBFF36F8F4FF000701F
:102AF000E1EE100A7047000087E4FFFF9800000035
:102B0000A0000020000000003DFFFFFFD4010000F6
:102B1000300000000000002000F00DF8002801D077
:102B2000FFF7C4FFAFF300800020AFF30080FFF792
:102B300073FD00F002F80120704700F001B80000BA
:102B40000746384600F002F8FBE7000080B5AFF317
:102B50000080024A11001820ABBEFBE726000200ED
:102B6000FEE7FEE7FEE7FEE7FEE7704770477047C7
:102B700000F000B80248416802788A184260704745
:102B80008C00002001488047014800477529000853
:102B9000952B0008AFF30080FFF79CFFFFF7BCFF09
:102BA000FFF7FEBFFFF7FEBFFFF7FEBFFFF7FEBF59
:102BB000FFF7FEBFFFF7FEBFFFF7FEBFFFF7FEBF49
:102BC000FFF7FEBFFFF7FEBFFFF7FEBFFFF7FEBF39
:102BD000FFF7FEBFFFF7FEBFFFF7FEBFFFF7FEBF29
:102BE000FFF7FEBFFFF7FEBFFFF7FEBFFFF7FEBF19
:102BF000FFF7FEBFFFF7FEBFFFF7FEBFFFF7FEBF09
:102C0000FFF7FEBFFFF7FEBFFFF7FEBFFFF7FEBFF8
:102C1000FFF7FEBFFFF7FEBFFFF7FEBFFFF7FEBFE8
:102C2000FFF7FEBFFFF7FEBFFFF7FEBFFFF7FEBFD8
:102C3000FFF7FEBFFFF7FEBFFFF7FEBFFFF7FEBFC8
:102C4000FFF7FEBFFFF7FEBFFFF7FEBFFFF7FEBFB8
:102C5000FFF7FEBFFFF7FEBFFFF7FEBFFFF7FEBFA8
:102C6000FFF7FEBFFFF7FEBFFFF7FEBFFFF7FEBF98
:102C7000FFF7FEBFFFF7FEBFFFF7FEBFFFF7FEBF88
:102C8000FFF7FEBFFFF7FEBFFFF7FEBFFFF7FEBF78
:102C9000FFF7FEBFFFF7FEBFFFF7FEBFFFF7FEBF68
:102CA000FFF7FEBFFFF7FEBFFFF7FEBFFFF7FEBF58
:102CB000FFF7FEBFFFF7FEBFFFF7FEBFFFF7FEBF48
:102CC000FFF7FEBFFFF7FEBFFFF7FEBFFFF7FEBF38
:102CD000FFF7FEBFFFF7FEBFFFF7FEBFFFF7FEBF28
:102CE0000001DD00000199000001F9000010FC0066
:082CF0000608004800093D0040
:0400000508002B952F
:00000001FF
