:020000040800F2
:10000000B804002001200008DD1F0008DF1F0008E1
:10001000E11F0008E31F0008E51F000800000000C2
:10002000000000000000000000000000E71F0008C2
:10003000E91F000800000000EB1F0008ED1F00088A
:100040001D20000821200008252000082920000884
:100050002D20000831200008352000083920000834
:100060003D200008412000084520000849200008E4
:100070004D20000851200008552000085920000894
:100080005D20000861200008652000086920000844
:100090006D200008712000087520000879200008F4
:1000A0007D200008812000088520000889200008A4
:1000B0008D20000863140008912000089520000896
:1000C000992000089D200008A1200008A520000814
:1000D000A9200008AD200008B1200008B5200008C4
:1000E000B9200008BD200008C1200008C520000874
:1000F000C9200008CD200008D1200008D520000824
:10010000D9200008DD200008E1200008E5200008D3
:10011000E9200008ED200008F1200008F520000883
:10012000F9200008FD200008012100080521000831
:10013000092100080D2100081121000815210008DF
:10014000192100081D21000821210008252100088F
:10015000292100082D21000831210008352100083F
:10016000392100083D2100084121000845210008EF
:10017000492100084D21000851210008552100089F
:10018000592100085D2100082DE9FC47050065D0D4
:10019000DFF87876DFF88466BC68F86800F003085A
:1001A0002878C10604F00C0448D524B10C2C08BFF3
:1001B000B8F1010F2CD13868810702D5A869002851
:1001C0004CD0396808074EBF396871680909286A38
:1001D00001F0F001814206D200F0DEFA00283DD1A4
:1001E00000F0F5F907E000F0F2F924B9286A00F010
:1001F000D3FA002832D100F086FABA6800F079FA12
:10020000DFF81006006800F01DFB010016D0D8E1F1
:10021000A86928B3396841F00101396000F034FB66
:1002200081463868810707D400F02EFBA0EB090057
:100230000328F6D30320C4E100F0C9F92878C107E8
:1002400056D5082C04D00C2C08BFB8F1030F18D1D8
:10025000386881034CD56868002849D10120B0E195
:10026000386840084000386000F00EFB814638686E
:100270008107E3D500F008FBA0EB09000328F6D3C3
:10028000D8E76868B0F5803F04D1386840F4803022
:10029000386011E0B0F5A02F386806D140F4802016
:1002A0003860396841F4803105E020F480303860EE
:1002B000396821F480213960686860B100F0E4FA9F
:1002C00081463868810313D400F0DEFAA0EB090000
:1002D0006528F6D3AEE700F0D7FA81463868810387
:1002E00006D500F0D1FAA0EB09006528F6D3A1E706
:1002F0002878810713D5042C04D00C2C08BFB8F142
:10030000020F22D13868410502D5E8680028A5D03F
:100310007868296920F0F85040EA01607860287810
:10032000010743D568690028706830D040F00100AB
:10033000706000F0A9FA80467068810736D400F03A
:10034000A3FA00F040F9F7D374E7E86878B13968A8
:1003500041F48071396000F097FA804638684105B1
:10036000D6D400F091FA00F02EF9F7D362E738689E
:1003700020F48070386000F087FA804638684105C4
:10038000CDD500F081FA00F01EF9F7D352E740080E
:100390004000706000F078FA80467068810705D5EB
:1003A00000F072FA00F00FF9F7D343E7287841071D
:1003B00067D5B86DC1004FF000080AD4B86D40F0A1
:1003C0008050B8654FF00108B86D00F08050009083
:1003D0000098DFF84C94D9F80000C10513D4D9F87F
:1003E000000040F48070C9F8000000F04DFA824629
:1003F000D9F80000C10506D400F046FAA0EB0A00C7
:100400000328F5D316E7A868012804D1306840F026
:100410000100306010E00528306806D140F004008B
:100420003060316841F0010105E040084000306073
:10043000316821F004013160A86841F2893960B166
:1004400000F022FA82463068810713D400F01CFACB
:10045000A0EB0A004845F6D3ECE600F015FA824618
:100460003068810706D500F00FFAA0EB0A00484576
:10047000F6D3DFE6B8F1000F03D0B86D20F080505E
:10048000B865A86A002800F09B80022878D1F86837
:10049000EA6A00F00301914201BF00F070012A6B8B
:1004A000521EB1EB021F1ED16A6B00F4FE41B1EB8C
:1004B000022F18D1A96B07290CBF0021012100F4DC
:1004C00000328A420FD1EA6B520800F4C001521E7A
:1004D000B1EB425F07D1296C490800F0C060491EAA
:1004E000B0EB416F48D00C2C4BD03868410101D49F
:1004F0003868C1003FF5B2AE386820F080703860CF
:1005000000F0C2F904463868810105D500F0BCF955
:10051000001B0328F7D38DE6F868DFF80813EA6AB2
:100520000840296B1043491E40EA0110EA6B696BD1
:10053000520840EA0120296C521E490840EA425004
:10054000491E40EA4160A96B090940EA4140F86050
:10055000386840F080703860F96841F08071F96067
:1005600000F092F904463868810129D400F08CF932
:10057000001B0328F7D35DE63868810120D4E7E744
:100580000C2C3FF46BAE386820F08070386039680E
:1005900011F0205F03D1F86880088000F860F968E6
:1005A000DFF884020140F96000F06EF90446386813
:1005B000810105D500F068F9001B0328F7D339E65F
:1005C0000020BDE8F687A0EB0800032870473868D4
:1005D00040F0080038603968286A21F0F0010143D2
:1005E00039607968E86921F47F4141EA0021796046
:1005F00070472DE9F0410400884658D0DFF82C629E
:10060000306800F00700404509D23168C90848EA5F
:10061000C1013160306800F00700404547D12078C3
:10062000DFF8E851C1072AD56068032802D129689C
:100630008A0108E0022802D129688A0303E0002821
:10064000296802D18A0702D431E04A052FD5A9686A
:10065000890840EA8100A86000F016F90746A868FA
:10066000616800F00C00B0EB810F08D000F00CF9CD
:10067000C01B41F289318842F1D3032037E0207852
:10068000810705D5AA68A06822F0F0020243AA609B
:10069000316801F0070188450BD23068C00848EA8C
:1006A000C0003060316801F00701414501D00120F0
:1006B0001DE02078410705D5AA68E06822F4E062D1
:1006C0000243AA602178080706D5A968206921F4A9
:1006D000605141EAC001A96000F015F8AA6800F075
:1006E00008F8BDE8F0414B48006800F0ABB8BDE841
:1006F000F0814F49C2F30312895C454A01F01F01A2
:10070000C8401060704770B5404A4A4B9068D66840
:100710000025002110F00C0006F00306464C03D023
:100720000C2812D1012E1AD115682E0704D43A4D87
:100730002E68C6F3032502E01568C5F303153F4E86
:1007400056F8255048B9294624E0042808BF214618
:1007500020D008281ED119461CE00C281AD1D068D8
:1007600000F00300022803D0032808BF1D4600E064
:100770002546D168D068D268C0F306204543C1F34E
:100780000210C2F34161401C491CB5FBF0F0490066
:10079000B0FBF1F1084670BD7CB5294E05463068C6
:1007A0000024C10002D500F075F80EE0306840F07A
:1007B00080503060316801F080510091009800F065
:1007C00069F8316821F080513160B0F5007F04D1C3
:1007D000802D0CD9A12D09D304E0802D88BF0324DE
:1007E00005D801D1022402E0702D00D101240F4868
:1007F0000168C90844EAC1010160006800F007000F
:10080000A04201D0012076BD002076BD001002403C
:10081000840000207C0000209410024090100240D0
:10082000007000408C809DF9FFFFEEFE002002402A
:10083000401E000800127A000024F400081F00087F
:100840005810024070B50E4E044630780025A0B115
:100850004FF47A710B4AB1FBF0F11068B0FBF1F084
:1008600000F09DF848B9102C07D2002221464FF025
:10087000FF3000F06BF8B46000E00125284670BD41
:10088000740000208400002001484068704700BFC9
:1008900074000020DFF87400006800F4C060704746
:1008A00010B5DFF86810B0F5007F086800F4C0608C
:1008B00019D1B0F5007F1FD00868DFF85420DFF8A9
:1008C000544020F4C06040F4007000F017F800E0DD
:1008D000401E4A69530501D50028F9D148694105F0
:1008E0000AD5032010BDB0F5806F05D0086820F44C
:1008F000C06040F480600860002010BD08603220B5
:1009000013684343B3FBF4F0401C70470070004091
:100910008400002040420F000901020002D42A484E
:1009200081547047294B02F00F021A4402F8041C4C
:100930007047274B19684FF6FF020002114000F480
:10094000E0600843234908431860704770B5204BA6
:100950001C68C4F302230124C3F10705052D2EBF33
:100960000F2504FA05F56D1E1E1D072E34BF00234A
:10097000DB1E2940994004FA03F3BDE870405B1E7A
:100980001A401143C8E70000010007D4012200F01B
:100990001F01114B8A40400943F82020704710B5D1
:1009A000401EB0F1807F01D3012010BD0B4C606070
:1009B0000F214FF0FF30FFF7AFFF0021A1600720AC
:1009C0002060002010BD000000E400E018ED00E011
:1009D0000CED00E00000FA0500E100E010E000E0AE
:1009E0002DE9FC47064600243068DFF82074010535
:1009F000A04621D5706E70B1B0F5800F17D0B0F55C
:100A0000000F03D0B0F5400F09D013E03A6842F46C
:100A100080323A6004E0002100F07CF9044654B9C9
:100A2000F96F706E21F440010143F96704E000F0B2
:100A30006BF9F3E70124A0463068C10421D5B06EFC
:100A4000A8B1B0F1807F17D0B0F1007F03D0B0F132
:100A5000407F04D013E0396841F4803139607CB9BB
:100A6000F96FB06E21F040710143F96709E0002190
:100A700000F050F90446F2E700F046F9FAE70124E5
:100A8000A046306881032BD5F86CC1004FF00009F7
:100A90000AD4F86C40F08050F8644FF00109F86C0B
:100AA00000F0805000900098DFF83454286840F43B
:100AB00080702860FFF7E8FE82462868C10500F1D3
:100AC0008280FFF7E1FEA0EB0A000328F5D30324A0
:100AD000A046B9F1000F03D0F86C20F08050F86404
:100AE0003078C10705D5FA6FB06B920840EA8202F0
:100AF000FA673178880705D5F96FF06B21F00C01A2
:100B00000143F9673178480705D5F96F306C21F05A
:100B100030010143F9673178080705D5F96F706C2A
:100B200021F0C0010143F9673178C80605D5F96F96
:100B3000B06C21F440710143F9673178880605D51E
:100B4000F96FF06C21F440610143F9673168880561
:100B500005D5F96FF06D21F440210143F967316843
:100B6000480505D5F96F306E21F440110143F9674E
:100B70003178480605D5F96F306D21F440510143B5
:100B8000F9673178080605D5F96F706D21F4404199
:100B90000143F9673168C80505D5F96FB06D21F4D7
:100BA00040310143F9673168880446D5F96FF06E2A
:100BB00021F040610143F967F06EB0F1006F34D16C
:100BC00000F09DF839E0002C82D1DFF85043206816
:100BD00010F440701CBFD6F8841088420BD02068F7
:100BE000216841F48031216020F44070226822F4B1
:100BF000803222602060C0070FD5FFF745FE054612
:100C00002068810709D4FFF73FFE401B41F289317C
:100C10008842F5D34FF003085BE72168D6F88400DB
:100C200021F440710143216053E7B0F1806F04D19A
:100C300000F06FF8010018BF80463068010314D53A
:100C4000FA6F306F22F040620243FA67306FB0F102
:100C5000006F02D100F053F807E0B0F1806F04D1CB
:100C600000F057F8010018BF80463068410314D5E2
:100C7000FA6F706F22F040620243FA67706FB0F152
:100C8000006F02D100F03BF807E0B0F1806F04D1B3
:100C900000F03FF8010018BF80463068410418D5C5
:100CA000FA6FB06F22F040520243FA67B06FB0F1B2
:100CB000805F03D1022100F02DF807E0B0F1005F62
:100CC00007D1022106F1200000F0A2F8010018BFB0
:100CD00080463068010405D5FA6FF06F22F080423B
:100CE0000243FA673168C80306D5F96FD6F8800069
:100CF00021F000410143F9674046BDE8F6873868B6
:100D000040F4801038607047002106F1200000F0A8
:100D10007FB80121301D05E08148016841F00401E0
:100D2000016070472DE9F04105467D4F28680C466B
:100D3000F968002611F0030F0DD0F96801F00301E6
:100D4000814231D180B3F8686968C0F30210401C59
:100D500088420ED028E0012804D025D303281DD0D6
:100D600018D321E03A6891071ED5FA68696800F047
:100D7000C9F8386820F0806000F0CCF88046386808
:100D8000010113D5FFF780FDA0EB08000328F6D37F
:100D9000032637E039684A05E7D405E039688A0355
:100DA000E3D439684A03E0D401262BE0A9682CB9C2
:100DB0003A695C48EB6800F095F80FE0012C3A695D
:100DC00009D12B69584802405B0842EA01215B1EA9
:100DD00041EA435102E06B6900F08BF839613868F1
:100DE00040F0806000F096F804463868010105D4B0
:100DF000FFF74AFD001B0328F7D3C9E73869A96943
:100E0000084338613046BDE8F08100000C10024014
:100E10002DE9F0410646424F30680C46F96800253E
:100E200011F0030F0DD0F96801F00301814231D1B7
:100E300080B3F8687168C0F30210401C88420ED07D
:100E400028E0012804D025D303281DD018D321E0A1
:100E50003A6891071ED5FA68716800F053F838684F
:100E600020F0805000F056F880463868810013D595
:100E7000FFF70AFDA0EB08000328F6D303252BE0BB
:100E800039684A05E7D405E039688A03E3D439684C
:100E90004A03E0D401251FE0B1687A69002C04D12F
:100EA0002048F36800F01EF802E0336900F021F8F2
:100EB0007961386840F0805000F02CF804463868BA
:100EC000810005D4FFF7E0FC001B0328F7D3D5E72A
:100ED00078697169084378612846BDE8F0810000AF
:100EE00000700040024042EA01211B0941EA4341EF
:100EF00070470E4802405B0842EA01215B1E41EA4E
:100F00004361704722F073021043491E40EA01100A
:100F1000F86070473860FFF7B7BC000090100240DF
:100F200000100240FF80FDFFFF809FFFFF80FFF960
:100F300038B5040001D1012032BD00F06BF818B9BA
:100F400000F064F800F082F93CE090F83D100129CF
:100F500001D001207047022180F83D100168CA6865
:100F600042F00102CA600168DFF88400814218BFC4
:100F7000B1F1804F12D0DFF87C0081421CBFDFF856
:100F8000782091420AD0DFF8740081421FBFDFF859
:100F900070209142DFF86C0081420DD18A68DFF841
:100FA00068000240062A18BFB2F5803F08D00868E2
:100FB00040F00100086003E00A6842F001020A60A4
:100FC0000020704702206870211D206800F0D7F8CB
:100FD00001202873A870E87028716871A871E87101
:100FE00028726872A872E8726870002032BD000032
:100FF000002C01400004004000080040000C0040AC
:101000000034014000400140070001000021297028
:101010002046704704F13C056878704710B50446D7
:10102000206801698A0715D5C1688A0712D56FF053
:101030000201016101222277806910F0030F20462E
:1010400002D000F004F903E000F002F900F094F897
:1010500000202077206801694A0715D5C1684A0732
:1010600012D56FF00401016102222277806910F429
:10107000407F204602D000F0EAF803E000F0E8F8F4
:1010800000F07AF800202077206801690A0715D55A
:10109000C1680A0712D56FF00801016104222277A6
:1010A000C06910F0030F204602D000F0D0F803E032
:1010B00000F0CEF800F060F8002020772068016989
:1010C000CA0615D5C168CA0612D56FF010010161B4
:1010D00008222277C06910F4407F204602D000F039
:1010E000B6F803E000F0B4F800F046F800202077EE
:1010F00020680169CA0708D5C168CA0705D56FF01D
:1011000001010161204600F0ABF9206801690A067F
:1011100008D5C1680A0605D56FF080010161204637
:1011200000F0C4F920680169CA0508D5C1680A063B
:1011300005D56FF480710161204600F0B8F9206890
:1011400001694A0608D5C1684A0605D56FF0400115
:101150000161204600F0ACF9206801698A060AD5D1
:10116000C1688A0607D56FF0200101612046BDE8FD
:10117000104000F09EB910BD204600F09BB92DE94B
:10118000F043DFF8A870D0F800C0DFF8A430DFF833
:10119000A440DFF8A450DFF8A460DFF8A4E0DFF893
:1011A000A480DFF8A490B84218BFB0F1804F07D0F8
:1011B000484518BF404503D0704518BFB0420ED116
:1011C0004A68B8422CF0700C18BFB0F1804F42EA68
:1011D0000C0C0CD048451CBF4045704507D0B042B0
:1011E00018BFA84203D0A04218BF984204D1CA68D1
:1011F0002CF4407C42EA0C0C4A692CF0800C42EA48
:101200000C020260B8428A68C26218BFB0420A6823
:10121000826204D0A8421CBFA042984201D1096951
:10122000016301224261BDE8F0830000002C01400F
:1012300000480140004401400040014000340140AA
:10124000000C004000080040000400407047704758
:1012500070470000844B5854022908BF1A72704727
:10126000814A1044017170472DE9F8437E4C217B7F
:10127000480801EB90729208A1EB8205EDB200BF25
:1012800087A0625D825C012D02D1207A00B1921CA0
:10129000206F401CD2B2824202D2491C002021732E
:1012A0002067607BA84236D075A6DFF8C091DFF8D2
:1012B000C081331D002253F8301056F8300089B237
:1012C00000F0DEF90027605DC0EBC00008EB000114
:1012D00009F10403CA5D53F8371059F8370089B291
:1012E00000F0CEF97F1C072FEDDB207A002814BF19
:1012F000002201224FF480614FF0904000F0C0F9CD
:10130000201D311D425D51F8351056F8350089B267
:1013100000F0B6F96573BDE8F1832DE9F0410646AA
:101320000A230D46904696FBF3F700220021F8B2FF
:10133000FFF790FF0A2404FB176600220121F0B298
:10134000FFF788FF95FBF4F604FB16554246022191
:10135000F0B2FFF77FFFE8B2BDE8F04100220321C1
:1013600078E70000F8B5434C3F4D20683F4F40F010
:10137000010020600026216801F001010091009821
:10138000216841F002012160226802F0020200920D
:101390000098216841F0040121601121226802F0C7
:1013A0000402009200982966002002216866A9665E
:1013B00007EBC60005F15C014268EA6557F83600A4
:1013C00000F07AF8761C072EF2DB4FF48060E865B7
:1013D00005F15C014FF0904000F06EF801202866A6
:1013E000686600260220A86625A707EBC6004168AC
:1013F000E96505F15C0157F8360000F05DF8761CF0
:10140000042EF2DBE06840F00200E0600122E068B8
:1014100000F002000090002100981D20FFF796FACE
:101420001D20FFF7B1FA1448286140F2F311E96179
:101430000320686100212962A961A96205F11000F9
:10144000FFF776FD05F11000FFF77FFD0020012179
:10145000C2B2401C2A44C3B2042B1171F8DBF1BDA7
:1014600002E70648FFF7DABD00000020981E0008DA
:10147000501E00084C1002400004004010000020E4
:1014800000000048010000000000004802000000C9
:1014900000000048100000000004004801000000A7
:1014A000060205050405060207060000704770479E
:1014B00070477047704700002DE9F84F4FF0000962
:1014C000724A734B4FF00F0805460E4634E0714CDC
:1014D000A54214BF072406248C406F493C4341F8C1
:1014E0002C40C143146801EA040C7468E40348BF4B
:1014F00040EA0C0CC2F800C0546801EA040C74689D
:10150000A40348BF40EA0C0CC2F804C0946801EA86
:10151000040C7468E40248BF40EA0C0CC2F808C02E
:10152000D46801EA040C7168890248BF40EA0C0CD7
:10153000C2F80CC009F10109316831FA09F000F074
:101540009780012404FA09F414EA0100F2D04FEA6A
:10155000490C032101FA0CF16FEA010E7168E443B2
:10156000012918BF022903D0112918BF122910D14F
:10157000A968F7680EEA010107FA0CF73943A96078
:1015800069687768C7F30017214007FA09F73943FC
:101590006960716801F00307032F07D1EF6AC1F397
:1015A000C0013C4001FA09F10C43EC62E968B468FF
:1015B0000EEA010104FA0CF42143E9604FEA8901C3
:1015C0007468022C18BF122C12D14FEAD90405EB13
:1015D000840401F01C07D4F820A008FA07FB2AEACB
:1015E0000B0AD6F810B00BFA07F747EA0A0727628A
:1015F0002C680EEA0407347904F0030404FA0CF4AE
:101600003C432C607468E40094D51C6844F00104E9
:101610001C604FEA990C1C6804F00104009401F06E
:101620000C01009C1C4C54F82C4008FA01F724EAE9
:101630000707B5F1904F08BF002418D0174CA542FA
:1016400008BF012413D0164CA54208BF02240ED0B7
:10165000144CA54208BF032409D0134CA54208BF6F
:10166000042404D0114CA5427FF431AF052433E7A4
:10167000BDE8F18F0069084018BF0120C0B2704773
:101680000AB1816170478162704700000004014027
:1016900060100240001800480800014000040048A3
:1016A00000080048000C00480010004800140048E2
:1016B00038B504460120002C45D094F8210028B903
:1016C000002184F82010204600F07EF9022184F8E1
:1016D0002110CA20226850625321206841622046AE
:1016E00000F002F901002ED12168DFF888028A6833
:1016F00002408A602268936865682169A0690D4389
:1017000005432B4393602068E1680161206801690B
:10171000A26841EA02410161204600F005F901009A
:1017200011D12168CA6C92089200CA642268D36CF5
:10173000E56961690D432B43D364FF2223685A6234
:10174000012184F8211032BDF8B500F0AEF814463E
:1017500001D10220F2BD012085F82000022185F888
:101760002110CA202A685062532128684162284605
:1017700000F0BAF8010038D128688068002C12D136
:1017800041065CBF0020F070307800F0FBF800F0FC
:1017900038F8040200F087F844EA07440443F0787C
:1017A00044EA80540DE041065CBF0020F07074787C
:1017B0003178B078240244EA0144F178044344EAE1
:1017C00081542968DFF8B00104400C602868826801
:1017D00022F48022826029688A68F36830690343B2
:1017E0001A438A60284600F09FF82A68FF21516258
:1017F000030004BF012185F82110002285F8202074
:10180000F2BD07467078BDE030B50068836A4B6072
:101810000469C4F30E048C600368DFF85C010340C4
:101820001C0C04F03F040C708B701D0A9B0D4D7056
:10183000CB702AB9087800F01FF8087000F023F880
:10184000002030BD30B50368DFF830015B6803402D
:101850008B701D0A1C0C05F01F055B0BCC704D70C6
:1018600003F007030B702AB9C87800F005F8C870B8
:1018700000F009F8002030BD03090A2200F00F0033
:1018800012FB030070474878030900F00F0012FBB9
:10189000030048708878030900F00F0012FB030270
:1018A0008A7070470702B0786CE005460E4695F8DE
:1018B00020000128704738B504462068C16821F02F
:1018C000A001C160FEF7E0FF05462068C1688806F8
:1018D00008D4FEF7D9FF401B40F2E9318842F4D327
:1018E000032032BD002032BD70B5044600252068BB
:1018F000C1684A0616D44FF0FF31C160FEF7C4FF3D
:10190000064609E0FEF7C0FF801B40F2E93188423D
:1019100024BF032584F821502168C868410601D4FA
:10192000032DEFD1284670BD70B5154D044668688B
:1019300020F08000686000262968880608D42046C8
:10194000FFF7B9FFA0B1032084F8210003260FE0C0
:10195000286820F0200028602046FFF7ACFF18B16F
:10196000032084F821000326286840F02000286026
:10197000304670BDBFFF8FFF7F7F7F003FFFFF00BE
:1019800008280040002101E0491C0A38C2B20A2A96
:10199000FAD240EA0110C0B270470000184881B086
:1019A000816841F001018160816801F001010091CD
:1019B0000099026842F080520260006800F0805096
:1019C0000090009801B0704710B5A2B0044688227C
:1019D0000021684600F01AF821680A4A91420DD1A8
:1019E0004FF400334FF48071009321916846FEF765
:1019F000F7FF0548016841F40041016022B010BDC5
:101A000058100240002800409010024010B50446D3
:101A100010460A460146204600F002F8204610BD56
:101A200062F30F2262F31F42401810F0030308D044
:101A3000C91A1FD3DB0748BF00F8012D28BF20F8C3
:101A4000022D130030B414461546103928BF20E982
:101A50003C00FAD8490728BF20E90C0048BF40F8ED
:101A6000042D890028BF20F8022D48BF00F8012D61
:101A700030BC7047C91818BF00F8012DCB0728BF2C
:101A800000F8012D704700002DE9F04196B000F0FC
:101A900001F97A4C206840F080502060442221688F
:101AA00001F0805100910021009805A8FFF7AEFFDA
:101AB000142200216846FFF7A9FF4FF40070FEF7DB
:101AC000EFFE08B100F0E3F800F0F4F8A06B20F0AE
:101AD0001800A06314210122059107920B92602146
:101AE00000220C920D910F9205A8FEF74DFB08B154
:101AF00072B6FEE70F200090002101910291039140
:101B000004916846FEF775FD08B172B6FEE7FFF76F
:101B100003F900F002F9FFF725FC0021002000F096
:101B200017F9FEF7B1FE8046554D32E0022C26D162
:101B30009DF80100401C3C2190FBF1F13C2202FB8E
:101B400011008DF801001AE0FEF79EFE0646FEF732
:101B50009BFEC01B65281AD3A878C0B12C78A4B10D
:101B600000F090F8012CE1D19DF80000401C1821F4
:101B700090FBF1F1182202FB11008DF800009DF896
:101B800001109DF8000000F09DF80020A8700021D1
:101B90006970FEF779FEA0EB080040F2F51188426B
:101BA00037D3FEF771FE80462C7800F06BF8A879E9
:101BB0009DF80110C0F10100A87101229DF80000FC
:101BC000FFF7ABFBA979012C204605D10020FFF7D8
:101BD00047FBA979012013E0022C03D1FFF740FB5A
:101BE000A9790CE001210020FFF73AFB0121012037
:101BF000FFF736FB01210220FFF732FB0121032012
:101C0000FFF72EFBAA799DF801109DF80000FFF761
:101C100084FB002000F0E2F80446C4F101042979B5
:101C2000E0B2884203D0FEF72FFE68712C71FEF7F8
:101C30002BFE6979401A652828BFEC70E8780028E7
:101C400082D0FEF721FE074668780028A1D1FEF772
:101C50001BFE801B40F2BD2188420CD30020A870DF
:101C6000012128786970401C2870C0B2022890DDDC
:101C7000002028708DE70121A9708AE758100240E2
:101C8000AC0000200DF10101684600F02FB872B6DB
:101C9000FEE70000032010B5FEF74BFE0F20FEF715
:101CA000D1FD0024002814BF0124FFF777FE204651
:101CB00010BD00000248016841F480710160704766
:101CC0000070004000B585B000228DF800008DF84E
:101CD000011001208DF803008DF802200392049278
:101CE00069461848FFF730FD05B000BD70B586B0F5
:101CF00004460D46134E002201A93046FFF784FD2D
:101D0000002269463046FFF79DFD9DF804002070D3
:101D10009DF80510297006B070BD0B480B4A01688C
:101D200041F40041016000210648026041607F23C8
:101D3000FF2100228360C16002618261C261FFF7FE
:101D4000B7BC00008800002090100240002800402E
:101D500038B586B004460D4600F035F8200009D1AC
:101D60002248016841F004010160006800F00400AD
:101D700000900098DFF878201FA0290009D10023E7
:101D800030F81410029303930191022300F020F81D
:101D900017E0012D15D130F81410164B0191029364
:101DA00000210223039100F013F800BF13A030F8C4
:101DB000144000220F2160B2FEF7C8FD60B2FEF7AA
:101DC000E3FD07B030BD1422002101A8FFF71EBEBD
:101DD000049301A952F82400FFF76EBB06A2044B3E
:101DE00032F8101053F82000FFF744BC4C100240AA
:101DF00080000020000021100020000028000000CA
:101E00000C48016841F47001016000220A49086829
:101E100040F0010008608A604FF480520B68074868
:101E200003400B60CA6000200B6823F480230B6022
:101E30008861704788ED00E000100240FFFFF6EA7D
:101E4000000000000000000001020304060708096A
:101E5000000000000000010100000101010100007C
:101E6000010000010000000000010100010000016C
:101E7000010000000100000100000001000000005E
:101E8000000000000101010100000000000000004E
:101E90000000000100000000000800488000000071
:101EA000000000480002000000000048000100009F
:101EB0000004004800040000000400481000000076
:101EC0000004004820000000000400480800000052
:101ED00030B5016884684218416802EB5103C907B4
:101EE00003D54C4401E0491C05D19A420AD012F9AD
:101EF000011B12F8015B002904F8015BF3D4491EB1
:101F0000F7D5F2E70C3030BDA0860100400D03008C
:101F1000801A060000350C0040420F0080841E002D
:101F200000093D0000127A000024F40000366E0122
:101F30000048E801006CDC0210B50749794418310B
:101F4000064C7C44163404E00A68081D1144884796
:101F50000146A142F8D110BD2C000000380000005D
:101F60004EF68851CEF20001086840F47000086017
:101F7000BFF34F8FBFF36F8F4FF00070E1EE100A89
:101F8000704700004DFFFFFFD80100003600000041
:101F90000000002000F00DF8002801D0FFF7CCFF72
:101FA000AFF300800020AFF30080FFF76DFD00F07D
:101FB00002F80120704700F001B8000007463846DB
:101FC00000F002F8FBE7000080B5AFF30080024AA2
:101FD00011001820ABBEFBE726000200FEE7FEE77B
:101FE000FEE7FEE7FEE770477047704700F000B875
:101FF0000248416802788A184260704774000020E5
:102000000148804701480047011E000811200008D0
:10201000AFF30080FFF7A4FFFFF7BCFFFFF7FEBFA1
:10202000FFF7FEBFFFF7FEBFFFF7FEBFFFF7FEBFE4
:10203000FFF7FEBFFFF7FEBFFFF7FEBFFFF7FEBFD4
:10204000FFF7FEBFFFF7FEBFFFF7FEBFFFF7FEBFC4
:10205000FFF7FEBFFFF7FEBFFFF7FEBFFFF7FEBFB4
:10206000FFF7FEBFFFF7FEBFFFF7FEBFFFF7FEBFA4
:10207000FFF7FEBFFFF7FEBFFFF7FEBFFFF7FEBF94
:10208000FFF7FEBFFFF7FEBFFFF7FEBFFFF7FEBF84
:10209000FFF7FEBFFFF7FEBFFFF7FEBFFFF7FEBF74
:1020A000FFF7FEBFFFF7FEBFFFF7FEBFFFF7FEBF64
:1020B000FFF7FEBFFFF7FEBFFFF7FEBFFFF7FEBF54
:1020C000FFF7FEBFFFF7FEBFFFF7FEBFFFF7FEBF44
:1020D000FFF7FEBFFFF7FEBFFFF7FEBFFFF7FEBF34
:1020E000FFF7FEBFFFF7FEBFFFF7FEBFFFF7FEBF24
:1020F000FFF7FEBFFFF7FEBFFFF7FEBFFFF7FEBF14
:10210000FFF7FEBFFFF7FEBFFFF7FEBFFFF7FEBF03
:10211000FFF7FEBFFFF7FEBFFFF7FEBFFFF7FEBFF3
:10212000FFF7FEBFFFF7FEBFFFF7FEBFFFF7FEBFE3
:10213000FFF7FEBFFFF7FEBFFFF7FEBFFFF7FEBFD3
:10214000FFF7FEBFFFF7FEBFFFF7FEBFFFF7FEBFC3
:10215000FFF7FEBFFFF7FEBFFFF7FEBFFFF7FEBFB3
:10216000F400000199000001F9000010FC000508CE
:0B217000004800093DDA000001FB0000
:0400000508002011BE
:00000001FF
